{"$$indexCreated":{"fieldName":"txId","unique":true,"sparse":false}}
{"$$indexCreated":{"fieldName":"nonceSigner","unique":true,"sparse":false}}
{"$$indexCreated":{"fieldName":"txId","unique":true}}
{"$$indexCreated":{"fieldName":"nonceSigner","unique":true}}
{"to":"0x693be847f8bf09966c5a83b9c22e5a73c11178bd","gas":100000,"data":"0xa264626f6479a362706b5820785d61606284004cd7489cd678966183400ee3817d8f9fdd7543c8777a186b566464617461583c4e2a5af02b880d4d20fb45315e3e1d4b15b9e1a4cd010d1b980672db09bf8dc5b542dab61fef8463ab3883e44e9462b9fd4fd2c706af30c1dfe1cb72656e6f6e63654f2dd4e48be321ae1c154fbb55229e7666666f726d617401","nonce":0,"txId":"0x0a82b5656f063c7f68687551644dae0f5327bffa5cd2ee1f5135b667e200cd7e","value":"0x00","rawSerializedTx":"0xf8f58085174876e800830186a094693be847f8bf09966c5a83b9c22e5a73c11178bd80b88da264626f6479a362706b5820785d61606284004cd7489cd678966183400ee3817d8f9fdd7543c8777a186b566464617461583c4e2a5af02b880d4d20fb45315e3e1d4b15b9e1a4cd010d1b980672db09bf8dc5b542dab61fef8463ab3883e44e9462b9fd4fd2c706af30c1dfe1cb72656e6f6e63654f2dd4e48be321ae1c154fbb55229e7666666f726d61740182b621a00d308a4ca0e4fb8affdf5d1c2eb324de3a80ea06e743bc1998830ec63d439bfea02f963eb0e078e930c241c1105b9f9d2097c6ba49d8c4dde78527bcd8e3eb4db9","maxFeePerGas":100000000000,"maxPriorityFeePerGas":100000000000,"from":"0x095606d9bf3624b82035e779d7bba25b7c8c47fd","attempts":1,"serverAction":6,"creationBlock":{"hash":"0xb906ac122c21f8499fffeb67d838d0396fd6f08cb70c7a4080aaaeacfc220001","number":2565688,"timestamp":1694512018},"nonceSigner":{"nonce":0,"signer":"0x095606d9bf3624b82035e779d7bba25b7c8c47fd"},"_id":"dzp9IpwiSfEJY3qd","createdAt":{"$$date":1694512034477},"updatedAt":{"$$date":1694512034477}}
{"to":"0x693be847f8bf09966c5a83b9c22e5a73c11178bd","gas":100000,"data":"0xa264626f6479a362706b5820785d61606284004cd7489cd678966183400ee3817d8f9fdd7543c8777a186b566464617461583c4e2a5af02b880d4d20fb45315e3e1d4b15b9e1a4cd010d1b980672db09bf8dc5b542dab61fef8463ab3883e44e9462b9fd4fd2c706af30c1dfe1cb72656e6f6e63654f2dd4e48be321ae1c154fbb55229e7666666f726d617401","nonce":0,"txId":"0x0a82b5656f063c7f68687551644dae0f5327bffa5cd2ee1f5135b667e200cd7e","value":"0x00","rawSerializedTx":"0xf8f58085174876e800830186a094693be847f8bf09966c5a83b9c22e5a73c11178bd80b88da264626f6479a362706b5820785d61606284004cd7489cd678966183400ee3817d8f9fdd7543c8777a186b566464617461583c4e2a5af02b880d4d20fb45315e3e1d4b15b9e1a4cd010d1b980672db09bf8dc5b542dab61fef8463ab3883e44e9462b9fd4fd2c706af30c1dfe1cb72656e6f6e63654f2dd4e48be321ae1c154fbb55229e7666666f726d61740182b621a00d308a4ca0e4fb8affdf5d1c2eb324de3a80ea06e743bc1998830ec63d439bfea02f963eb0e078e930c241c1105b9f9d2097c6ba49d8c4dde78527bcd8e3eb4db9","maxFeePerGas":100000000000,"maxPriorityFeePerGas":100000000000,"from":"0x095606d9bf3624b82035e779d7bba25b7c8c47fd","attempts":1,"serverAction":6,"creationBlock":{"hash":"0xb906ac122c21f8499fffeb67d838d0396fd6f08cb70c7a4080aaaeacfc220001","number":2565688,"timestamp":1694512018},"nonceSigner":{"nonce":0,"signer":"0x095606d9bf3624b82035e779d7bba25b7c8c47fd"},"_id":"dzp9IpwiSfEJY3qd","createdAt":{"$$date":1694512034477},"updatedAt":{"$$date":1694512058734},"minedBlock":{"difficulty":"0","extraData":"0x","gasLimit":30000000,"gasUsed":105941,"hash":"0x12564d764ff189e1ca280f04f052ce733271781ea3c11f32bac286fc2340027b","logsBloom":"0x00000000000000000000900080000000040000000004000000000001000000000000000280000000000000000000000100000000000000000000000000000000000000000000000000000000088000000000000000000000000000000800000000008080000000000000000000000800000000100000004000000000100000000000000000000000000004081000000000000000000000000000000000000000000000000000200004400000000002000000000000000000000000000000000000000000020000000000000000000000000100000000200004200000000000000400000000000000000000000000040000000000000000000000002000000000","miner":"0x0000000000000000000000000000000088888888","mixHash":"0x0000000000000000000000000000000000000000000000000000000000000000","nonce":"0x0000000000000000","number":2565692,"parentHash":"0x9cbc040d02ae80551cb49e62e28e9bd6c52b87fd7b1ecafefde293b508fb09d4","receiptsRoot":"0x56e81f171bcc55a6ff8345e692c0f86e5b48e01b996cadc001622fb5e363b421","sha3Uncles":"0x1dcc4de8dec75d7aab85b567b6ccd41ad312451b948a7413f0a142fd40d49347","size":3021,"stateRoot":"0xcc1563145b922552eb6d59d5a39b8ecdd886344ad2f91e88b05440d432a35ad2","timestamp":1694512040,"totalDifficulty":"0","transactions":["0x0a82b5656f063c7f68687551644dae0f5327bffa5cd2ee1f5135b667e200cd7e","0x51dc40d14fff2bc85bf15b420a047a27e736b22d4e26d0f06705ab324c12375f"],"transactionsRoot":"0xf39871877360fa582b7cd7765bc2c56a0422408734bdbfd853abd2d65f73ef57","uncles":[]}}
{"to":"0x708644acf99c1b5631dc1157cfce14f7deabbf0f","gas":100000,"data":"0xa264626f6479a362706b5820785d61606284004cd7489cd678966183400ee3817d8f9fdd7543c8777a186b566464617461587c355d9974e100043385963ae134563d895047d831fbe317ae6c8cd93eab6d777e5d803a890d2ab57889b344b7a31c4857f792f163b3896a9a8aeca65b563e73e93b3e88c27bb60c7de06bbb732bf0ff7630da81357db083e02727775fefcada3b0ac8fa3c6a97cffd352e30ace49134b33d6a6dd7ba07be9f22882b5f656e6f6e63654f7ab28e9f2969d6eea6eea181ab952c66666f726d617401","nonce":1,"txId":"0x1dabfb42dc67b303b4da6717cfe96c9ec510684c44e5e0ee4de726fdae74ae4c","value":"0x00","rawSerializedTx":"0xf901350185174876e800830186a094708644acf99c1b5631dc1157cfce14f7deabbf0f80b8cda264626f6479a362706b5820785d61606284004cd7489cd678966183400ee3817d8f9fdd7543c8777a186b566464617461587c355d9974e100043385963ae134563d895047d831fbe317ae6c8cd93eab6d777e5d803a890d2ab57889b344b7a31c4857f792f163b3896a9a8aeca65b563e73e93b3e88c27bb60c7de06bbb732bf0ff7630da81357db083e02727775fefcada3b0ac8fa3c6a97cffd352e30ace49134b33d6a6dd7ba07be9f22882b5f656e6f6e63654f7ab28e9f2969d6eea6eea181ab952c66666f726d61740182b622a07315d32d2a7c09682e557f332aa886863ed107d8b7c800e9b7a3a8896981e56ba052c57f1b15466fafedddc3f939889a1fbdb9cdaa924f1197ce134971736402ba","maxFeePerGas":100000000000,"maxPriorityFeePerGas":100000000000,"from":"0x095606d9bf3624b82035e779d7bba25b7c8c47fd","attempts":1,"serverAction":1,"creationBlock":{"hash":"0x4bc427bbbfcdc3fefb698d024dd8c5e66f7d263eca1018a68807c3852613358e","number":2565704,"timestamp":1694512106},"nonceSigner":{"nonce":1,"signer":"0x095606d9bf3624b82035e779d7bba25b7c8c47fd"},"_id":"wmceXDJWdQ6o0eYm","createdAt":{"$$date":1694512121204},"updatedAt":{"$$date":1694512121204}}
{"to":"0x95ab10b04b7907dc4532265291c274e4ab8705d1","gas":500000,"data":"0xa264626f6479a362706b5820785d61606284004cd7489cd678966183400ee3817d8f9fdd7543c8777a186b566464617461589c95750268a9a5f6d27a9f98eccc601e395b47fc7b19f3a2904853b9ceb31fc2c1061f1de5824483b545df9a9f59a2631a0bb21e0ed1c53f3728d98bc48cab9c4c16c9f656903fa54c2bc6f21b97e18bb3c99eeb33888e540e7258e076872f6928e5729a5ce4507da221e037a8760bc4c4f66e79ada1206c2d2f6b7b1092c51f30fe5ece87d58c32767c51a744d316a08d58fc2243f71a2fb1f5c5977e656e6f6e63654fa6726d73869333cdee935c6f2908d966666f726d617401","nonce":2,"txId":"0x50d7d85f8a8a75c40a7f066a42f617d453d512a642e2090f0b0893782047e64f","value":"0x00","rawSerializedTx":"0xf901550285174876e8008307a1209495ab10b04b7907dc4532265291c274e4ab8705d180b8eda264626f6479a362706b5820785d61606284004cd7489cd678966183400ee3817d8f9fdd7543c8777a186b566464617461589c95750268a9a5f6d27a9f98eccc601e395b47fc7b19f3a2904853b9ceb31fc2c1061f1de5824483b545df9a9f59a2631a0bb21e0ed1c53f3728d98bc48cab9c4c16c9f656903fa54c2bc6f21b97e18bb3c99eeb33888e540e7258e076872f6928e5729a5ce4507da221e037a8760bc4c4f66e79ada1206c2d2f6b7b1092c51f30fe5ece87d58c32767c51a744d316a08d58fc2243f71a2fb1f5c5977e656e6f6e63654fa6726d73869333cdee935c6f2908d966666f726d61740182b621a0bb46023f3ed70012960776b0d50b6a676590b8b612d86f58dc14eca5585a5e60a07cb9722929769f51233bd7eb946b11c032cccd20fe7ce972b52d63052468456f","maxFeePerGas":100000000000,"maxPriorityFeePerGas":100000000000,"from":"0x095606d9bf3624b82035e779d7bba25b7c8c47fd","attempts":1,"serverAction":0,"creationBlock":{"hash":"0x4bc427bbbfcdc3fefb698d024dd8c5e66f7d263eca1018a68807c3852613358e","number":2565704,"timestamp":1694512106},"nonceSigner":{"nonce":2,"signer":"0x095606d9bf3624b82035e779d7bba25b7c8c47fd"},"_id":"KSt4zxQSGyJh0BEu","createdAt":{"$$date":1694512144201},"updatedAt":{"$$date":1694512144201}}
{"to":"0x708644acf99c1b5631dc1157cfce14f7deabbf0f","gas":100000,"data":"0xa264626f6479a362706b5820785d61606284004cd7489cd678966183400ee3817d8f9fdd7543c8777a186b566464617461587c355d9974e100043385963ae134563d895047d831fbe317ae6c8cd93eab6d777e5d803a890d2ab57889b344b7a31c4857f792f163b3896a9a8aeca65b563e73e93b3e88c27bb60c7de06bbb732bf0ff7630da81357db083e02727775fefcada3b0ac8fa3c6a97cffd352e30ace49134b33d6a6dd7ba07be9f22882b5f656e6f6e63654f7ab28e9f2969d6eea6eea181ab952c66666f726d617401","nonce":1,"txId":"0x1dabfb42dc67b303b4da6717cfe96c9ec510684c44e5e0ee4de726fdae74ae4c","value":"0x00","rawSerializedTx":"0xf901350185174876e800830186a094708644acf99c1b5631dc1157cfce14f7deabbf0f80b8cda264626f6479a362706b5820785d61606284004cd7489cd678966183400ee3817d8f9fdd7543c8777a186b566464617461587c355d9974e100043385963ae134563d895047d831fbe317ae6c8cd93eab6d777e5d803a890d2ab57889b344b7a31c4857f792f163b3896a9a8aeca65b563e73e93b3e88c27bb60c7de06bbb732bf0ff7630da81357db083e02727775fefcada3b0ac8fa3c6a97cffd352e30ace49134b33d6a6dd7ba07be9f22882b5f656e6f6e63654f7ab28e9f2969d6eea6eea181ab952c66666f726d61740182b622a07315d32d2a7c09682e557f332aa886863ed107d8b7c800e9b7a3a8896981e56ba052c57f1b15466fafedddc3f939889a1fbdb9cdaa924f1197ce134971736402ba","maxFeePerGas":100000000000,"maxPriorityFeePerGas":100000000000,"from":"0x095606d9bf3624b82035e779d7bba25b7c8c47fd","attempts":1,"serverAction":1,"creationBlock":{"hash":"0x4bc427bbbfcdc3fefb698d024dd8c5e66f7d263eca1018a68807c3852613358e","number":2565704,"timestamp":1694512106},"nonceSigner":{"nonce":1,"signer":"0x095606d9bf3624b82035e779d7bba25b7c8c47fd"},"_id":"wmceXDJWdQ6o0eYm","createdAt":{"$$date":1694512121204},"updatedAt":{"$$date":1694512166505},"minedBlock":{"difficulty":"0","extraData":"0x","gasLimit":30000000,"gasUsed":160723,"hash":"0x07d2f5eae0428c6ed33eab3b0d2e3dd33c9426d54c408c2ebc1d3cd82a850067","logsBloom":"0x00000000000000000000900000200000040000000000040000000000000000000000000080000000000000000000000100080000020000000000000000000000000000000000000000000000080000000000000000000000000000000800000000008080000000000000000000000800000000100000000000000000100000000000000000000000000000081000000000000000000000000000000000000000000000000000200004000000000002000000000000000000000000000000000000000000020000000000000000000000000100010000200004200000000000000000000000000000000000000000040000000000008000000000002000000000","miner":"0x0000000000000000000000000000000088888888","mixHash":"0x0000000000000000000000000000000000000000000000000000000000000000","nonce":"0x0000000000000000","number":2565708,"parentHash":"0x19750982988e82fa94e77203bffabaa8d18f4c0396cc382208b698a6d29fed31","receiptsRoot":"0x56e81f171bcc55a6ff8345e692c0f86e5b48e01b996cadc001622fb5e363b421","sha3Uncles":"0x1dcc4de8dec75d7aab85b567b6ccd41ad312451b948a7413f0a142fd40d49347","size":3150,"stateRoot":"0x61ed5c333cd8e7c70594847ce99506e1306a60de2c3ec6e38065c5f370d03e5f","timestamp":1694512128,"totalDifficulty":"0","transactions":["0x1dabfb42dc67b303b4da6717cfe96c9ec510684c44e5e0ee4de726fdae74ae4c","0xe5aaa074060b77cdc763c49a7715af8aa1074fcc7b7202f122c6494be808aa59"],"transactionsRoot":"0x1ae15a4ea2e6f9bedbcbbf861dde4c810a8d1b5f86ee5aa230db7156cfecf36f","uncles":[]}}
{"to":"0x95ab10b04b7907dc4532265291c274e4ab8705d1","gas":500000,"data":"0xa264626f6479a362706b5820785d61606284004cd7489cd678966183400ee3817d8f9fdd7543c8777a186b566464617461589c95750268a9a5f6d27a9f98eccc601e395b47fc7b19f3a2904853b9ceb31fc2c1061f1de5824483b545df9a9f59a2631a0bb21e0ed1c53f3728d98bc48cab9c4c16c9f656903fa54c2bc6f21b97e18bb3c99eeb33888e540e7258e076872f6928e5729a5ce4507da221e037a8760bc4c4f66e79ada1206c2d2f6b7b1092c51f30fe5ece87d58c32767c51a744d316a08d58fc2243f71a2fb1f5c5977e656e6f6e63654fa6726d73869333cdee935c6f2908d966666f726d617401","nonce":2,"txId":"0x50d7d85f8a8a75c40a7f066a42f617d453d512a642e2090f0b0893782047e64f","value":"0x00","rawSerializedTx":"0xf901550285174876e8008307a1209495ab10b04b7907dc4532265291c274e4ab8705d180b8eda264626f6479a362706b5820785d61606284004cd7489cd678966183400ee3817d8f9fdd7543c8777a186b566464617461589c95750268a9a5f6d27a9f98eccc601e395b47fc7b19f3a2904853b9ceb31fc2c1061f1de5824483b545df9a9f59a2631a0bb21e0ed1c53f3728d98bc48cab9c4c16c9f656903fa54c2bc6f21b97e18bb3c99eeb33888e540e7258e076872f6928e5729a5ce4507da221e037a8760bc4c4f66e79ada1206c2d2f6b7b1092c51f30fe5ece87d58c32767c51a744d316a08d58fc2243f71a2fb1f5c5977e656e6f6e63654fa6726d73869333cdee935c6f2908d966666f726d61740182b621a0bb46023f3ed70012960776b0d50b6a676590b8b612d86f58dc14eca5585a5e60a07cb9722929769f51233bd7eb946b11c032cccd20fe7ce972b52d63052468456f","maxFeePerGas":100000000000,"maxPriorityFeePerGas":100000000000,"from":"0x095606d9bf3624b82035e779d7bba25b7c8c47fd","attempts":1,"serverAction":0,"creationBlock":{"hash":"0x4bc427bbbfcdc3fefb698d024dd8c5e66f7d263eca1018a68807c3852613358e","number":2565704,"timestamp":1694512106},"nonceSigner":{"nonce":2,"signer":"0x095606d9bf3624b82035e779d7bba25b7c8c47fd"},"_id":"KSt4zxQSGyJh0BEu","createdAt":{"$$date":1694512144201},"updatedAt":{"$$date":1694512167793},"minedBlock":{"difficulty":"0","extraData":"0x","gasLimit":30000000,"gasUsed":279526,"hash":"0x326eee6a09acbee207e6ae003e9b387b6cbd0587024059587b1cf5f0fa53e10d","logsBloom":"0x00000000000000000000000080000000400000000000000100000000000000000000000080000000000000000000000100001000000000000200008000000000000000000000000000000000000000000000040000000000000000000800008000000000000000000000000000000800000000100000004000000000000000000000000000000000000000081000040400000800000000020000000000000000000000000000200000000200000002000000000000000000010000000000000000000000000000000000000000000000000100000000000000200000000000000400008000000000000000000000000000000200000000000000002000000000","miner":"0x0000000000000000000000000000000088888888","mixHash":"0x0000000000000000000000000000000000000000000000000000000000000000","nonce":"0x0000000000000000","number":2565712,"parentHash":"0x082ef6522f92123581bc9a0aea65a429266a43e052140185dd4784472a089b3f","receiptsRoot":"0x56e81f171bcc55a6ff8345e692c0f86e5b48e01b996cadc001622fb5e363b421","sha3Uncles":"0x1dcc4de8dec75d7aab85b567b6ccd41ad312451b948a7413f0a142fd40d49347","size":3815,"stateRoot":"0x89bed30674e900fcd79ff2a84ade45788e401ac0538a4a63e3cfd4be701881c4","timestamp":1694512150,"totalDifficulty":"0","transactions":["0x854e3183d6474993f76ef449acc55586493ec6afc41e7a3208facbafce113e6d","0x50d7d85f8a8a75c40a7f066a42f617d453d512a642e2090f0b0893782047e64f","0xed0579fef0be1b7b75eb14964c5c3c8a2e7d4dbef553d7593008b1eae0ad9125"],"transactionsRoot":"0xd32539ea6016f1cfe1468930ce1810e649c8fe599644b8c6855b57e3da44b624","uncles":[]}}
{"to":"0x3657e5d1a06cc693595b5ccb408e277fbcd88c4f","gas":100000,"data":"0x","nonce":3,"txId":"0xdb1b7f5d536978bef402b4fce8ecb7157ac887e85f6943656d3d52b54446d53c","value":"0x0429d069189e0000","rawSerializedTx":"0xf86f0385174876e800830186a0943657e5d1a06cc693595b5ccb408e277fbcd88c4f880429d069189e00008082b622a0f94882645ce0dc9d839c88f1225f12451b21954dd37854a131309a1acf64db69a0399041fce1b1c623cb1e93a5316b37259e9501f4feb9cf7f70f09b8ec74d3d55","maxFeePerGas":100000000000,"maxPriorityFeePerGas":100000000000,"from":"0x095606d9bf3624b82035e779d7bba25b7c8c47fd","attempts":1,"serverAction":3,"creationBlock":{"hash":"0x29cb6179fddd00c9c0799858f438c01fbc716d7ca5130a52e50472b8360d7ecb","number":2565716,"timestamp":1694512172},"nonceSigner":{"nonce":3,"signer":"0x095606d9bf3624b82035e779d7bba25b7c8c47fd"},"_id":"mIDlCfvYlMJf9QsC","createdAt":{"$$date":1694512187522},"updatedAt":{"$$date":1694512187522}}
{"to":"0x3657e5d1a06cc693595b5ccb408e277fbcd88c4f","gas":100000,"data":"0x","nonce":3,"txId":"0xdb1b7f5d536978bef402b4fce8ecb7157ac887e85f6943656d3d52b54446d53c","value":"0x0429d069189e0000","rawSerializedTx":"0xf86f0385174876e800830186a0943657e5d1a06cc693595b5ccb408e277fbcd88c4f880429d069189e00008082b622a0f94882645ce0dc9d839c88f1225f12451b21954dd37854a131309a1acf64db69a0399041fce1b1c623cb1e93a5316b37259e9501f4feb9cf7f70f09b8ec74d3d55","maxFeePerGas":100000000000,"maxPriorityFeePerGas":100000000000,"from":"0x095606d9bf3624b82035e779d7bba25b7c8c47fd","attempts":1,"serverAction":3,"creationBlock":{"hash":"0x29cb6179fddd00c9c0799858f438c01fbc716d7ca5130a52e50472b8360d7ecb","number":2565716,"timestamp":1694512172},"nonceSigner":{"nonce":3,"signer":"0x095606d9bf3624b82035e779d7bba25b7c8c47fd"},"_id":"mIDlCfvYlMJf9QsC","createdAt":{"$$date":1694512187522},"updatedAt":{"$$date":1694512227505},"minedBlock":{"difficulty":"0","extraData":"0x","gasLimit":30000000,"gasUsed":247083,"hash":"0xb22f3bac3882de071f23e96e417cc63d4e10c08fa30924b9ca343ad3ec961d85","logsBloom":"0x00000000000000000000002000000000000000000000000000000000000000080000200080000000000000000000000100001000000000000000000000000000000000000000002000000000080000000000000000000000000000000840008000008000000000000000000000000800000000100000000000000000100000000000000000000040000000041000000400000000000000000000000000000000000000000000000000040000000002000000000000000000000000000000000000000000020400000800000000000000000000000000000004200000000000000000000000200400000000000000040000000000000000000000002000000000","miner":"0x0000000000000000000000000000000088888888","mixHash":"0x0000000000000000000000000000000000000000000000000000000000000000","nonce":"0x0000000000000000","number":2565720,"parentHash":"0xe62c067eaa40832e677c79d5fe89ad7675a83d565e8344eae712b35f4443db8b","receiptsRoot":"0x56e81f171bcc55a6ff8345e692c0f86e5b48e01b996cadc001622fb5e363b421","sha3Uncles":"0x1dcc4de8dec75d7aab85b567b6ccd41ad312451b948a7413f0a142fd40d49347","size":3751,"stateRoot":"0x31ddad942a6d77832a2809be93f24cd6882e48158f3acca7350560b7cb35bfbf","timestamp":1694512194,"totalDifficulty":"0","transactions":["0xdb1b7f5d536978bef402b4fce8ecb7157ac887e85f6943656d3d52b54446d53c","0x2fea9e1775d825f4e16f1c6f544cbf3c3634a93c6d3a27272f5cc50a4b4da01b","0x29fe2325ffafbe277606d55c284a74f331d336c5d457de83396a7cab6b104cb4"],"transactionsRoot":"0xb163b52316fb3ea5eaab2e4f3b70f4b7227fbc4c8e8f26f196fe5830cb33df81","uncles":[]}}
